:020000040800F2
:1000000028090020A1010008F58B00081933000819
:10001000F18B0008CD0F0008D5A8000800000000F3
:1000200000000000000000000000000083900008B5
:10003000D10F00080000000081900008B591000871
:10004000BB010008BB010008BB010008BB010008A0
:10005000BB010008BB010008BB010008C112000879
:10006000BB010008BB010008BB010008BB01000880
:10007000BB010008BB010008BB010008BB01000870
:10008000BB010008BB010008BB010008BB01000860
:10009000BB010008BB010008BB010008BB01000850
:1000A000BB010008BB010008BB010008BB01000840
:1000B000BB010008BB010008BB010008BB01000830
:1000C000BB010008BB010008BB010008BB01000820
:1000D000BB010008B5A80008C5A80008BB010008BE
:1000E000BB010008BB010008BB010008BB01000800
:1000F000BB010008BB010008BB010008BB010008F0
:10010000BB010008BB010008BB010008BB010008DF
:10011000BB010008BB010008F5920008BB01000804
:10012000BB010008BB010008BB010008BB010008BF
:10013000BB010008BB010008BB010008BB010008AF
:10014000BB010008BB010008BB010008BB0100089F
:10015000BB010008BB010008BB010008BB0100088F
:10016000BB010008BB010008BB010008BB0100087F
:10017000BB010008BB010008BB0100080000000033
:10018000BB010008BB010008DFF810D000F0AAFB9B
:1001900000480047E9B40008AFF3008028090020B8
:1001A0000648804706480047FEE7FEE7FEE7FEE711
:1001B000FEE7FEE7FEE7FEE7FEE7FEE7E192000866
:1001C000890100082DE9F05F0546002092469B4614
:1001D00088460646814640241BE02846414647465D
:1001E000224600F05AF953465A46C01A914110D39C
:1001F00011461846224600F041F92D1A67EB010816
:100200004F4622460120002100F038F917EB000983
:100210004E41201EA4F10104DFDC484631462A4647
:100220004346BDE8F09FD2B201E000F8012B491E21
:10023000FBD270470022F6E710B513460A46044683
:100240001946FFF7F0FF204610BD30B505462A4697
:100250000B4612F8010B13F8014B08B1A042F8D07D
:100260001CB1002802D06D1CF1E7284630BD0346C2
:1002700011F8012B00F8012B002AF9D1184670471C
:1002800070B506460AF082FB046805460A22002182
:10029000304600F012F92C6070BD2DE9FE4F81EA66
:1002A000030404F0004421F0004100944FF0000BDF
:1002B00023F0004350EA01045ED052EA03045BD00D
:1002C000C3F30A54C1F30A552C44A4F2F334019445
:1002D000A0FB0254C1F3130141F48011C3F31303D3
:1002E00043F4801301FB024400FB034E840A970A87
:1002F00044EA815447EA8357A4FB076802958D0AB4
:1003000005FB07854FEA932C04FB0C542705029D3F
:100310004FEA065847EA1637B5EB08056EEB070CAF
:10032000870E920E47EA811742EA8312A7FB020169
:10033000B6EB0B0164EB00042B0D43EA0C335E18A3
:1003400044EB1C50DA465146E7FB0201C5F31304A7
:100350004FEA0B3343EA14534FEA0432019C43EA59
:100360000603A4F10C040294009CCDE900B400F053
:10037000EBF803B0BDE8F08F00200146F9E70EB5B9
:1003800040F2334102910021CDE900110A460B46AB
:1003900000F0DAF803B000BDC1F30A5210B5C1F3A2
:1003A000130140F2FF3341F480119A4201DA002038
:1003B00010BD40F233439A42A2F2334203DC524270
:1003C00000F06BF810BD904010BD00F0004230F01E
:1003D00000400AD0C10D01F56071C0F3160042EA79
:1003E0000151C20840071143704700200146704781
:1003F00030B5041E71F1000404DB4FF000444042AC
:1004000064EB0101141E73F1000405DB1C464FF080
:100410000043524263EB04038B4208BF824230BD6B
:1004200030B5041E71F1000404DB4FF0004440427B
:1004300064EB0101141E73F1000405DB1C464FF050
:100440000043524263EB0403994208BF904230BD1F
:1004500030B50B46014600202022012409E021FA94
:1004600002F59D4205D303FA02F5491B04FA02F591
:100470002844151EA2F10102F1DC30BD202A04DB64
:10048000203A00FA02F1002070479140C2F12003A7
:1004900020FA03F3194390407047202A04DB203AE6
:1004A00021FA02F00021704721FA02F3D040C2F194
:1004B000200291400843194670472DE9F0479146C4
:1004C0000F4680460446002614F8015B2DB100F06B
:1004D0002DFA0068405DC007F6D12B2D02D02D2DDE
:1004E00018D0641E4A463946204600F023FA27B148
:1004F0003968A14201D1C7F8008071054FF00204AC
:100500000BD54042002803DD0AF040FA0460A00742
:10051000BDE8F08746F48066E4E70028F8DA0AF0E0
:1005200035FA04606FF00040F2E710B5141E73F165
:10053000000408DA401C41F1000192185B411A43A3
:1005400001D120F0010010BD2DE9F04D92469B46EF
:1005500011B1B1FA81F202E0B0FA80F22032904695
:10056000FFF78CFF04460F4640EA0A0041EA0B0100
:1005700053465A46084313D0114653EA010019D096
:10058000C8F140025046FFF788FF05460E46504628
:1005900059464246FFF772FF084305D0012004E0A8
:1005A00020463946BDE8F08D0020054346EAE07656
:1005B0002C4337430A986305E40AA0EB08000022A5
:1005C000FD0A44EA47540A3002D500200146E9E713
:1005D000010510196941DDE9084500196941BDE8C7
:1005E000F04DA2E72DE9FE4F804681EA0300C00FDF
:1005F0000C46009021F0004123F00045B8EB0200CA
:10060000A94105D24046214690461C460B4602466B
:1006100023F00040104347D0270DC7F30A00C3F36F
:100620000A510290401A019040286BDAC3F313007C
:1006300040F4801B0098924620B10023D2EB030ABD
:1006400063EB0B0B01985946C0F140025046FFF78F
:1006500015FF06460D4650465946019A00F054F9DA
:1006600010EB08006141002487EA115284EAE77325
:100670001A4340D0009A62B3019A012A4FEA075206
:1006800015DC001B61EB02014FF0004202EA075249
:10069000CDE90042001C41F5801132462B46FFF7A0
:1006A00053FF03B0BDE8F08F40462146F9E7001B39
:1006B00061EB0201001C41F5801300185B4120181A
:1006C000A2F5001747EB030140EAD570B6196D415A
:1006D00011E06D084FEA360645EAC0754FEA075249
:1006E000001B61EB0201001C41F5801149084FEA33
:1006F00030000019514132462B4603B0BDE8F04F9F
:10070000FFF713BF0098012240000023D0EB020244
:1007100063EBE073009821464FEAE074B8EB000009
:1007200061EB0401E9E783F000435BE781F00041FE
:1007300058E72DE9F04D81EA030404F0004B21F065
:10074000004514464FF0000A23F0004150EA05022C
:1007500020D054EA01021DD0C5F30A570246C5F362
:100760001303C1F31300C1F30A5640F4801543F498
:100770008013A7EB0608101BD64608F2FD3873EB72
:10078000050002D308F1010801E092185B41B8F1BD
:10079000000F03DA00200146BDE8F08D00204FF481
:1007A0008011064684460EE0171B73EB050705D340
:1007B000121B63EB050306434CEA010C49084FEAA0
:1007C000300092185B4150EA0107EDD152EA030074
:1007D00012D082EA040083EA0501084305D0101B09
:1007E000AB4106D20122002306E000224FF0004375
:1007F00002E06FF0010253101AEB06004CEB0851B7
:1008000010EB0A0041EB0B01BDE8F04DFFF78DBE88
:100810002DE9F04D00231A461B1A8A4103DB002004
:100820000146BDE8F08DC1F30A52C1F3130141F452
:1008300080154FF0000BD10702D100186D41521EF8
:100840000027044640F2FF11384601EB620A3E469B
:100850008046024600204FF48011FFF71EFEC219A9
:100860007141BB1846EB0100B4EB030C75EB000CB7
:1008700004D3E41A65EB000517460E46241908F167
:1008800001006D4180463428E3DDF91946EB06008E
:10089000091BA84103D24FF0FF32134601E00022AA
:1008A00013461BEB070046EB0A51BDE8F04DFFF77E
:1008B0003CBEC1F30A52C1F3130140F2FF3341F4CD
:1008C00080119A4202DA00200146704740F2334319
:1008D0009A42A2F2334202DC5242FFF7DEBDFFF73A
:1008E000CDBD0000064C074D06E0E06840F0010376
:1008F00094E8070098471034AC42F6D3FFF748FC61
:10090000E4D6000804D70008202A06DBCB17203ADB
:1009100041FA02F043EAE07306E041FA02F3D04004
:10092000C2F12002914008431946704700487047C1
:10093000A4D400082DE9F05F824600780027154610
:100940008B460AF10104B946302801D09DB113E06D
:1009500014F8010B0127782803D0582801D045B19D
:100960000AE00DB1102D07D10027102514F8010B56
:1009700002E0082500E00A250026B0460EE005FB4F
:10098000080005FB06F1012701EB10461FFA80F86D
:10099000B6F5803F00D3B94614F8010B294600F0A4
:1009A00018F80028EBDABBF1000F05D00FB1641E78
:1009B00000E05446CBF80040B9F1000F06D009F032
:1009C000E5FF02210160C81EBDE8F09F48EA06402D
:1009D000FAE73A2800D2303820F02002412A01D329
:1009E000A2F13700884201D34FF0FF30704710B5B5
:1009F00002F0BCFC10BD2DE9F04107460C46002674
:100A0000002509E036023919491B491E88B200F059
:100A100008F80644681CC5B2A542F3DB3046BDE8C1
:100A2000F08170B50446002602F064FD2546E1170A
:100A300004EB11610912A02202EB4101C8B202F0DD
:100A400025FD02F0A3FDE11704EB11610912A4EBEF
:100A50000121C8B202F01AFD02F098FD02F04AFD31
:100A6000A12002F013FD02F091FD002002F0D8FC5D
:100A7000064602F065FD304670BD2DE9F0410546A1
:100A80000E461746002409E0E20026FA02F2D1B22F
:100A90002A1990B200F006F8601CC4B2BC42F3DB25
:100AA000BDE8F08170B504460E4602F023FD2546F0
:100AB000E11704EB11610912A02202EB4101C8B257
:100AC00002F0E4FC02F062FDE11704EB116109128F
:100AD000A4EB0121C8B202F0D9FC02F057FD304668
:100AE00002F0D4FC02F052FD02F02AFD0A200AF0C6
:100AF000E9FB70BD2DE9FC410646002500240027D6
:100B0000B5E1052F53D2DFE807F00353A2F9F70050
:100B1000681CC5B24FF6FF700090D74840888E38E9
:100B200083B2D54802880021084603F041F8D3A0DB
:100B300010210B46C822CDE900102821142007F00F
:100B4000D5FC08F0CFF80446002C2DD100224FF43C
:100B50008061CF4801F060F9012008F0A0F8044658
:100B600001229102CA4801F057F9CCB94FF6FF7043
:100B70000090C14840888E3883B2BF480288002167
:100B8000084603F015F8C3A010210B46C822CDE992
:100B900000102821142007F0A9FC0025012706E0F9
:100BA000204608F0B1FA02E0204608F0ADFA49E12B
:100BB000681CC5B24FF6FF700090AF4840888E3871
:100BC00083B2AD4802880021084602F0F1FFB6A0CA
:100BD00010212023C822CDE900102821142007F07D
:100BE00085FC08F07FF804466CBB00224FF480615E
:100BF000A74801F011F9022008F051F8044601223B
:100C00009102A34801F008F9CCB94FF6FF700090AB
:100C1000994840888E3883B2974802880021084658
:100C200002F0C6FF9BA010210B46C822CDE90010A0
:100C30002821142007F05AFC0025022706E0204650
:100C400008F062FA02E0204608F05EFAFAE04FF699
:100C5000FF700090884840888E3883B286480288AA
:100C60000021084602F0A4FF96A010212023C822EC
:100C7000CDE900102821142007F038FC08F0D8F83E
:100C80000446C4B94FF6FF7000907B4840888E3808
:100C900083B2794802880021084602F089FF90A0BB
:100CA00010212023C822CDE900102821142007F0AC
:100CB0001DFC03271BE04FF6FF7000906E48408834
:100CC0008E3883B26C4802880021084602F070FF1B
:100CD0008DA010213223C822CDE900102821142034
:100CE00007F004FC204608F00FFA002500274FF417
:100CF00096600AF0E7FAA5E04AE0FFE74FF6FF70DA
:100D000000905D4840888E3883B25B48028800219D
:100D1000084602F04DFF8AA010212023C822CDE909
:100D200000102821142007F0E1FB08F017F9044611
:100D3000C4B94FF6FF7000904F4840888E3883B298
:100D40004D4802880021084602F032FF84A010219D
:100D50002023C822CDE900102821142007F0C6FB6B
:100D6000042710E04FF6FF700090434840888E380B
:100D700083B2414802880021084602F019FF00278B
:100D8000204608F0C1F94FF496600AF09BFA59E04A
:100D90004FF6FF700090384840888E3883B236484E
:100DA00002880021084602F003FF3146022008F0C5
:100DB000F2F80446002C40D14FF6FF7000902E4808
:100DC00040888E3883B22C4802880021084602F001
:100DD000EFFE6EA010212023C822CDE900102821AB
:100DE000142007F083FB724808F006F971A0102167
:100DF0000B46C822CDE900104621142007F076FBEF
:100E0000102000907048827803234621A02007F02C
:100E100023FB40F2DC500AF055FA4FF6FF700090C9
:100E2000154840888E3883B213480288002108464E
:100E300002F0BEFE3046BDE8FC810027204608F0E7
:100E400063F900BF00BF4FF4C8700AF03BFA052DEC
:100E50000DD14FF6FF700090074840888E3883B25E
:100E6000054802880021084602F0A2FE00E048E69C
:100E700000BF4FF6FF70DEE780000020506C656118
:100E800073652070726573732066696E67657200A2
:100E90000014024046696E6765727072696E742054
:100EA0006973204F4B000000506C656173652070C2
:100EB000726573732066696E676572206167616928
:100EC0006E000000436F6D706172652074776F2053
:100ED00066696E6765727072696E747300000000F7
:100EE00046696E6765727072696E7420636F6D70AB
:100EF000617269736F6E20697320737563636573C4
:100F00007366756C0000000054686520636F6D7037
:100F1000617269736F6E206661696C65642C207004
:100F20006C65617365207265656E74657220796F9A
:100F300075722066696E6765727072696E7473008F
:100F400047656E65726174652066696E676572706B
:100F500072696E742074656D706C61746500000058
:100F600047656E65726174652066696E676572704B
:100F700072696E742074656D706C61746520737530
:100F8000636365737366756C6C79000046696E67A0
:100F900065727072696E7420656E74657265642026
:100FA0007375636365737366756C6C79000000001C
:100FB00048000020436F6D70617269736F6E206C22
:100FC0006576656C3A0000009000002000BFFEE7E7
:100FD000704700007CB500264FF6FF70009068480F
:100FE00040888E3883B2664802880021084602F0A5
:100FF000DFFD64A010210B46C822CDE900101421AA
:10100000084607F073FA64A010212023DC22CDE902
:10101000001032210A2007F069FA6EA010210B4659
:101020007022CDE900105A213C2007F05FFA4FF4FE
:1010300078406C4908806CA010212023DC22CDE987
:1010400000106E210A2007F051FA0020654908803F
:101050004FF47A700AF036F900F02AFB0546681C56
:1010600000B964E07048854203D107F0FBFD0446F7
:101070001FE0B5F5967F17D34FF6FF7000904048FC
:1010800040888E3883B23E4802880021084602F02C
:101090008FFD66A010212023C822CDE90010282151
:1010A000142007F023FA42E0A8B2012107F0A4FDC2
:1010B0000446BCB94FF6FF700090314840888E3826
:1010C00083B22F4802880021084602F071FD5CA01F
:1010D00010212023C822CDE900102821142007F078
:1010E00005FA02E0204608F00FF84FF496600AF087
:1010F000E9F85B4807F080FF5AA010212023DC228A
:10110000CDE9001050210A2007F0F0F910200090DE
:101110006248008852490988421A032378216420D2
:1011200007F09AF94FF496600AF0CCF800BF4FF63A
:10113000FF700090124840888E3883B210480288B1
:101140000021084602F034FD32200AF0BBF84FF6C9
:10115000FF7000900A4840888E3883B208480288A1
:101160000021084602F024FD4DA018213023C8229A
:10117000CDE900102821142007F0B8F97CBD00004B
:101180008000002044656C6574652066696E676543
:10119000727072696E740000506C656173652065D1
:1011A0006E74657220796F75722066696E676572FC
:1011B0007072696E7420494420616E64207072659B
:1011C000737320456E74657220746F2073656E644E
:1011D0000000000030203D3C204944203C3D2032AE
:1011E00039390000000000204966207468652069D4
:1011F0006E707574204944203D20313131313030DA
:1012000030302C20416C6C2046696E6765727072BC
:10121000696E74732057696C6C2042652044656C5C
:1012200065746564212121007086A9004944206EFF
:10123000756D62657220746F6F206C6172676500F6
:1012400044656C6574652066696E67657270726965
:101250006E74207375636365737366756C6C790067
:1012600048000020546865206E756D626572206FBD
:1012700066206578697374696E672066696E676554
:10128000727072696E747320696E20746865206C68
:1012900069627261727920697320000090000020F9
:1012A000506C656173652070726573732074686536
:1012B000206261636B20627574746F6E00000000C1
:1012C00010B5022000F086FC10BD00000146212967
:1012D0003ED2DFE801F011131517191B1D1F212342
:1012E00025273D3D3D3D292B3D3D3D2D3D3D2F31AC
:1012F0003335373D3D393B0017A02BE017A029E0DF
:101300001CA027E022A025E02A4823E02AA021E013
:1013100039A01FE046481DE046A01BE04CA019E0A4
:1013200051A017E0564800BF56A013E05CA011E0A2
:1013300064480FE064A00DE06BA00BE06EA009E034
:1013400073A007E07BA005E083A003E089A001E093
:101350008CA000BF00BF70474F4B00007061636BF3
:10136000657420726563657074696F6E2065727252
:101370006F7200004E6F2066696E67657273206F32
:101380006E207468652073656E736F7200000000D4
:101390004661696C656420746F20656E74657220A7
:1013A00066696E6765727072696E7420696D6167D7
:1013B0006500000024D5000846696E67657270728A
:1013C000696E7420696D6167657320617265207450
:1013D0006F6F2077657420616E642066757A7A7904
:1013E00020746F2070726F64756365206665617428
:1013F000757265730000000046696E6765727072F1
:10140000696E7420696D616765732061726520740F
:101410006F6F206D6573737920746F2067656E65DB
:101420007261746520666561747572657300000091
:101430002CD6000846696E6765727072696E7473A7
:1014400020646F206E6F74206D617463680000000B
:101450004E6F2066696E6765727072696E74732074
:10146000666F756E64000000466561747572652074
:101470006D65726765206661696C656400000000D7
:10148000BCD500084661696C656420746F20646592
:101490006C6574652074656D706C61746500000026
:1014A0004661696C656420746F20636C65617220AD
:1014B00066696E6765727072696E74206C696272BB
:1014C0006172790068D500084572726F722072658A
:1014D0006164696E6720616E642077726974696EF9
:1014E0006720464C41534800756E646566696E65B9
:1014F00064206572726F7200696E76616C69642037
:101500007265676973746572206E756D62657200CD
:10151000496E636F72726563742072656769737474
:1015200065722073657474696E6720636F6E74658D
:101530006E7400004E6F7465706164207061676541
:10154000206E756D6265722073706563696669658A
:1015500064206572726F720046696E6765727072A0
:10156000696E74206C6962726172792066756C6C48
:101570000000000077726F6E6720616464726573AB
:101580007300000054686520636F6E6669726D6158
:1015900074696F6E20636F64652072657475726E16
:1015A000656420627920746865206D6F64756C6570
:1015B00020697320696E636F727265637400000046
:1015C00072B600BFFEE7000070B504461D4600235A
:1015D000B5F5804F13D154F822300C480340D1E9BF
:1015E000000640EA06108E6840EA06208E8940EA2E
:1015F00006408E693043034344F8223003E06FF025
:10160000704044F82200002070BD00000000F0CFC0
:1016100010B503460022086853F820201248024003
:10162000D1E901042043CC6820430C6920434C6974
:1016300020438C692043CC6920430C6A20434C6AC8
:1016400020438C6A2043CC6A2043CC6B20430C6B34
:10165000204302438868082801D142F0400208680C
:1016600043F82020002010BD8000F0FF30B5034675
:101670000024501C53F8204004F04044D1E90005F8
:1016800040EA05108D6840EA05208D8940EA05454D
:10169000088A401E45EA0055087D801E45EA006024
:1016A0008D6928430443501C43F82040002030BD7E
:1016B000F0B589B000260020069007900890464AB1
:1016C00007CA03AB07C300256F1E002043490880EB
:1016D000780CA8239B22912100903C2002F068FA0C
:1016E0006AE009F059FE0446FF2C60D0304606EB54
:1016F000D0714E10302C16DB392C14DC2846691CB6
:10170000CDB206A90C54092D09DB092095FBF0F197
:1017100000FB1150C5B200208DF818002CE000200D
:1017200006A9485528E03C2C06D12DB1681EC5B24B
:10173000002006A948551FE0652C1DD19DF8180012
:10174000D0B106A903A8FEF792FD03A924A009F0D1
:10175000F1F803A8FEF794FD074625A018210B46D3
:10176000D222CDE9001091219B2006F0BFFE4FF45C
:101770007A7009F0A7FD20E047F6FF70A8239B22AE
:10178000912100903C2002F013FA06A818210B4684
:10179000D222CDE9001091213C2006F0A7FE21467F
:1017A00015A009F0C7F806A914A009F0C3F8761C23
:1017B0001548864200DB00E093E700BF4FF6FF705C
:1017C000009012480288B2230021084602F0F0F986
:1017D000384609B0F0BD000000D400084E000020DB
:1017E0006E657770617373203A25730A00000000FC
:1017F000456E74657265640025630A0073747269CE
:101800006E67203A25730A0000350C008000002026
:1018100070B50446A56D00F005FB064694F835004A
:10182000022808D08020606500BF002084F83400C2
:1018300000BF012070BD2068006820F016002168FC
:1018400008602068406920F0800021684861206CB1
:1018500008B9A06C28B12068006820F00800216851
:1018600008602068006820F00100216808600FE02F
:1018700000F0D8FA801B05280AD92020606500BF37
:10188000002084F8340000BF032084F83500D1E73D
:101890002068006800F001000028E9D194F85C108D
:1018A0003F208840A86000BF002084F8340000BFBB
:1018B000012084F835000020BCE7014691F835008E
:1018C000022803D08020486501207047052081F858
:1018D00035000868006820F001000A6810600020E8
:1018E000F3E7000070B5044600F09CFA0646254672
:1018F000681C10B104480078054400BF00F092FA5B
:10190000801BA842FAD370BD7400002000B587B0D8
:10191000142102A8FEF78EFC2A48006808B107B01F
:1019200000BD01202749086000BF00200190264823
:10193000006840F00100244908600846006800F093
:101940000100019000BF00BF8814029002200390A4
:1019500000200490032005900C20069002A91B484B
:1019600000F046F94FF680700290022003900020AC
:101970000490032005900C20069002A9144800F062
:1019800037F94CF23370029002200390002004904B
:10199000032005900C20069002A90E4800F028F9BB
:1019A0004FF4805002900220039000200490032006
:1019B00005900C20069002A9074800F019F900BF15
:1019C000ADE70000600000203838024000140240FB
:1019D00000100240000C0240001802401CB50446F2
:1019E000022C7DD107F022FC06F002FF06F0AEFECD
:1019F00007F0B8F807F0D2F807F08EF802F034F9E3
:101A000049490868804706F0D1FD072000F084FAB4
:101A100000220121362000F0B1FA362000F09EFAB3
:101A200000221146252000F0A9FA252000F096FAA0
:101A300000221146262000F0A1FA262000F08EFA9E
:101A400000203A490880012239493A4801F08CFBCC
:101A50003BE04FF4C87009F035FC4FF6FF70009082
:101A6000354840888E3883B23348028800210846C2
:101A700002F09EF831A010210B46C822CDE90010DB
:101A80002821142006F032FD32A008F053FF4FF455
:101A9000487009F017FC4FF6FF7000902648408808
:101AA0008E3883B2244802880021084602F080F86C
:101AB0002EA010212023C822CDE9001028211420B7
:101AC00006F014FD31A008F035FF384807F028F97A
:101AD0000028BED13648007810B14FF6FF7000E004
:101AE00021E00090144840888E3883B21248028862
:101AF0000021084602F05CF82EA018210B46C822EF
:101B0000CDE900103221282006F0F0FC2DA018218C
:101B10000B46C822CDE900105021282006F0E6FC33
:101B20000020234908701CBD04000020680000202C
:101B30004A000020C4010020800000204D6F647521
:101B40006C65206E6F7420646574656374656421D0
:101B5000212100004D6F64756C65206E6F742064E8
:101B6000657465637465642121210A0054727920CB
:101B7000636F6E6E656374696E6720746865206D4F
:101B80006F64756C652E2E2E000000005472792053
:101B9000636F6E6E656374696E6720746865206D2F
:101BA0006F64756C652E2E2E0A0000003C0000202C
:101BB0004000002057656C636F6D6520486F6D6550
:101BC00000000000596F7572204D616A6573747969
:101BD0000000000010B5044604480068204020B111
:101BE000024804602046FFF7F9FE10BD143C014096
:101BF000F8B502460B460025002400200021DEE057
:101C0000012606FA01F51E6806EA0504AC4275D104
:101C10001E7906F00306012E04D01E7906F0030695
:101C2000022E13D190684F000326BE40B0434F00F0
:101C3000DE68BE4030439060506801268E40B0435D
:101C40001E79C6F300168E40304350601E7906F0B0
:101C50000306032E09D0D0684F000326BE40B043D0
:101C60004F009E68BE403043D0601E7906F00306E8
:101C7000022E13D1CF0802F1200656F827004E0796
:101C8000F70E0F26BE40B0434F07FF0E1E69BE4041
:101C90003043CF0802F1200646F8270010684F00B5
:101CA0000326BE40B0431E7906F003064F00BE4037
:101CB000304310605E6806F08056B6F1805F7DD1DB
:101CC00000BF00260096404E366846F480463E4FE0
:101CD0003E603E46366806F48046009600BF00BF70
:101CE0003A4E8F0856F827008E07370F0F26BE4052
:101CF000B043374EB24202D1002624E05EE0354EBA
:101D0000B24201D101261EE0334EB24201D1022679
:101D100019E0324EB24201D1032614E0304EB242F5
:101D200001D104260FE02F4EB24201D105260AE070
:101D30002D4EB24201D1062605E02C4EB24201D111
:101D4000072600E008268F073F0FBE4030431F4E96
:101D50008F0846F82700264E3068A0435E6806F4D8
:101D60008036B6F5803F00D12043214E3060361DCD
:101D70003068A0435E6806F40036B6F5003F00D137
:101D800020431B4E361D3060361D3068A0435E6810
:101D900006F48016B6F5801F00D12043144E083695
:101DA0003060361D3068A0435E6806F40016B6F554
:101DB000001F00D120430E4E0C363060491C102904
:101DC000FFF41EAFF8BD000044380240083801405F
:101DD000000002400004024000080240000C0240E3
:101DE000001002400014024000180240001C024093
:101DF000003C0140024613690B400BB1012000E09A
:101E00000020704710B5426921EA020302EA01048A
:101E100043EA0443836110BD0AB1816101E00B0410
:101E20008361704701480068704700006C00002023
:101E3000034800680349097808440149086070476D
:101E40006C0000207400002010B50D48006840F4BC
:101E500000700B4908600846006840F48060086024
:101E60000846006840F480700860032000F0C4F861
:101E7000002000F007F800F02BF8002010BD000053
:101E8000003C024070B504460E4800784FF47A7169
:101E9000B1FBF0F00C490968B1FBF0F5284600F001
:101EA000A7FC08B1012070BD102C07D200222146EA
:101EB000501E00F063F80548046001E00120F2E7DD
:101EC0000020F0E77400002078000020700000205F
:101ED00008B500BF002000900E48006840F4804024
:101EE0000C4908600846006800F48040009000BF7C
:101EF00000BF00BF00200090081F006840F0805025
:101F0000091F08600846006800F08050009000BF7C
:101F100000BF08BD4438024010B5014608460028FD
:101F200017DB00F01F0301229A400B4B440943F8D2
:101F3000242000BF00BF00BFBFF34F8F00BF00BF12
:101F400000BF00BF00BF00BFBFF36F8F00BF00BF67
:101F500000BF00BF10BD000080E100E00146084660
:101F6000002809DB00F01F0301229A4043099B006F
:101F700003F1E023C3F8002100BF70472DE9F05FB3
:101F800080460D461646002708F0E4FC0746394611
:101F90002A46334601F00700C0F1070ABAF1040FE0
:101FA00002D94FF0040A01E0C0F1070AD14600F15E
:101FB000040ABAF1070F02D24FF0000A01E0A0F1C3
:101FC000030AD4464FF0010A0AFA09FAAAF1010AF3
:101FD0000AEA020A0AFA0CFA4FF0010B0BFA0CFBA0
:101FE000ABF1010B0BEA030B4AEA0B042146404616
:101FF00008F0B8FCBDE8F09F00BF00F00702064BF8
:1020000019684FF6FF031940044B0B4343EA0221C2
:10201000014B196000BF70470CED00E00000FA05AD
:102020000D4A126822F0030202430B4B1A600B4A5E
:10203000126842F00402094B1A60012901D130BF35
:1020400002E040BF20BF20BF044A126822F0040211
:10205000024B1A60704700000070004010ED00E075
:1020600070B504460D460CB9012070BD5848006893
:1020700000F00700A84209D255490D7008460068D3
:1020800000F00700A84201D00120EEE7207800F020
:10209000020002281DD1207800F00400042805D198
:1020A0004C48006840F4E0504A490860207800F04D
:1020B0000800082805D14748006840F460404549B9
:1020C00008604448006820F0F000A16808434149D6
:1020D0000860207800F00100A8B36068012807D1EB
:1020E0003C4808380068C0F34040B8B90120BCE75C
:1020F0006068022802D06068032807D13548083894
:102100000068C0F3406048B90120AEE731480838A4
:102110000068C0F3400008B90120A6E72D48006818
:1021200020F00300616808432A490860FFF77AFE3F
:10213000064609E0FFF776FE801B41F288318842AF
:1021400002D9032091E707E02248006800F00C0064
:102150006168B0EB810FEDD11D48006800F0070009
:10216000A84209D91A490D700846006800F0070016
:10217000A84201D0012078E7207800F0040004286C
:1021800007D11448006820F4E050E1680843114981
:102190000860207800F00800082808D10D48006881
:1021A00020F46040216940EAC1000A49086000F05B
:1021B0003FF808490968C1F30311074A515CC84058
:1021C0000649086006480068FFF75CFE00204CE7FF
:1021D000003C02400838024009D400087800002082
:1021E000700000200148006870470000780000205F
:1021F00000B5FFF7F7FF04490968C1F38221034ADC
:10220000515CC84000BD00000838024019D40008E5
:1022100000B5FFF7E7FF04490968C1F34231034AFB
:10222000515CC84000BD00000838024019D40008C5
:102230002DE9F047002400250026A1462548006826
:1022400000F00C0020B1042805D008283AD105E0A0
:10225000DFF8849039E0DFF8849036E01D48001FF5
:10226000006800F03F041B48001F006800F4800075
:1022700078B11A481749091F0968C1F38811A0FBF2
:1022800001700146224600233846FDF79BFF0546B4
:102290000EE011480F49091F0968C1F38811A0FB1E
:1022A00001700146224600233846FDF78BFF0546A4
:1022B0000848001F0068C0F30140401C4600B5FB01
:1022C000F6F902E0DFF8109000BF00BF4846BDE815
:1022D000F0870000083802400024F40040787D01B7
:1022E000F8B504460CB90120F8BD207800F00100D3
:1022F000002874D0F948006800F00C0004280DD0C4
:10230000F648006800F00C00082813D1F348001FBD
:10231000006800F48000B0F5800F0BD1EF4808385A
:102320000068C0F34040002859D06068002856D1AA
:102330000120D9E700BF6068B0F5803F08D1E748C9
:102340000838006840F48030E449083908601EE02D
:102350006068B0F5A02F0DD1E0480838006840F45F
:102360008020DE49083908600846006840F4803063
:1023700008600CE0D9480838006820F48030D7495C
:10238000083908600846006820F48020086000BF13
:10239000606890B1FFF746FD054606E0FFF742FD95
:1023A000401B642801D903209EE7CC480838006808
:1023B000C0F340400028F1D011E0FFF733FD05469F
:1023C00006E0FFF72FFD401B642801D903208BE7AF
:1023D000C24808380068C0F340400028F1D1207896
:1023E00000F0020002285FD1BC48006800F00C0039
:1023F00058B1BA48006800F00C0008281CD1B74852
:10240000001F006800F48000B0B9B44808380068C4
:10241000C0F3400020B1E068012801D0012063E74B
:10242000AE480838006820F0F800216940EAC10091
:10243000AA490839086037E0E06800B30120A849DC
:102440000860FFF7EFFC054606E0FFF7EBFC401BDA
:10245000022801D9032047E7A04808380068C0F3E4
:1024600040000028F1D09D480838006820F0F800AE
:10247000216940EAC10099490839086014E0002048
:1024800097490860FFF7CEFC054606E0FFF7CAFC57
:10249000401B022801D9032026E79048083800682D
:1024A000C0F340000028F1D1207800F0080008288F
:1024B0002CD16069A8B101208A490860FFF7B2FCFD
:1024C000054606E0FFF7AEFC401B022801D90320B9
:1024D0000AE782486C300068C0F340000028F1D061
:1024E00014E000207F490860FFF79CFC054606E0E9
:1024F000FFF798FC401B022801D90320F4E6774837
:102500006C300068C0F340000028F1D1207800F062
:102510000400042870D1002770483830006800F0AB
:10252000805090B900BF002000906C48383000689F
:1025300040F080506949383108600846006800F072
:102540008050009000BF00BF01276748006800F47A
:102550008070B0B96448006840F4807062490860D7
:10256000FFF760FC054606E0FFF75CFC401B022815
:1025700001D90320B8E65C48006800F480700028A8
:10258000F2D000BFA068012808D154486830006824
:1025900040F001005149683108601DE0A06805283D
:1025A0000DD14E486830006840F004004B49683156
:1025B00008600846006840F0010008600CE04748E9
:1025C0006830006820F0010044496831086008461E
:1025D000006820F00400086000BFA068A8B1FFF701
:1025E00021FC054609E0FFF71DFC401B41F2883144
:1025F000884202D9032077E626E038486830006830
:10260000C0F340000028EED013E0FFF70BFC0546B6
:1026100008E0FFF707FC401B41F28831884201D9EE
:10262000032061E62D4868300068C0F340000028B0
:10263000EFD1012F07D129483830006820F08050B1
:1026400026493831086000BFA069002845D02348DA
:10265000006800F00C0008285DD0A069022845D170
:1026600000201F490866FFF7DDFB054606E0FFF77F
:10267000D9FB401B022801D9032035E6174808384A
:102680000068C0F340600028F1D1D4E90701084395
:10269000616A40EA81110122A06AC2EB500041EA5E
:1026A00000412C20005D41EA00600C49091F0860D0
:1026B00001200B490866FFF7B5FB054606E0FFF76A
:1026C000B1FB401B022801D903200DE6034808385E
:1026D0000068C0F340600028F1D049E008380240AB
:1026E00000004742800E4742007000400020214910
:1026F0000866FFF797FB054606E0FFF793FB401BD4
:10270000022801D90320EFE51B480068C0F34060B0
:102710000028F2D12CE0A069012800D1E4E5164898
:10272000001D0668A069012820D006F48001E06938
:1027300081421BD106F03F01206A814216D147F643
:10274000C0703040616AB0EB811F0FD106F4403198
:102750000122A06AC2EB5000B1EB004F06D106F097
:1027600070612C20005DB1EB006F01D00120BBE552
:102770000020B9E500004742003802404FF0E02059
:10278000006940F002004FF0E0210861704770B529
:1027900004460E4615460CB9012070BD94F8490058
:1027A00028B9002084F84800204600F01CF804F105
:1027B00008012068FEF72CFF3146A2682068FEF76A
:1027C00055FF2946236BD4E90102FEF7FDFEA168FF
:1027D000206850F8210040F00100A268216841F80B
:1027E00022000020D9E710B50446FFF78FF810BD8E
:1027F00070B504462546681EB0F1807F01D30120E4
:102800000FE0681E4FF0E02148610F214FF0FF30CC
:1028100008F0A8F800204FF0E02188610720086147
:10282000002070BD4FF0E020006920F002004FF062
:10283000E0210861704770477047000030B50246DC
:102840000B4600BF92F83C00012801D1022030BDA8
:10285000012082F83C0000BF022082F83D00106891
:1028600044681068816824F0700418680443106894
:102870004460184D1068A8421BD01068B0F1804F1A
:1028800017D0154D1068A84213D0144D1068A842F7
:102890000FD0134D1068A8420BD0124D1068A842FB
:1028A00007D0114D1068A84203D0104D1068A842FF
:1028B00005D121F080015868014310688160012032
:1028C00082F83D0000BF002082F83C0000BF00BF3E
:1028D000BDE7000000000140000400400008004087
:1028E000000C00400004014000400140001800407E
:1028F00010B504460CB9012010BD94F83D0028B96C
:10290000002084F83C00204600F026F8022084F8DD
:102910003D00211D206806F0F5FC012084F84600EA
:1029200000BF84F83E0001213F20015540200155A1
:102930004120015500BF00BF012084F84200432020
:102940000155442001554520015500BF012084F860
:102950003D000020D0E7000038B504462068B0F103
:10296000804F0FD100BF002000901548006840F054
:102970000100134908600846006800F0010000905B
:1029800000BF1BE00F492068884217D100BF00201C
:1029900000900B48006840F01000094908600846A4
:1029A000006800F01000009000BF00BF002201216D
:1029B0003620FFF7E3FA3620FFF7D0FA38BD0000E3
:1029C0004038024000100040014691F83D000128C7
:1029D00001D001207047022081F83D000868C068DE
:1029E00040F001000B68D8601A4B086898421BD071
:1029F0000868B0F1804F17D0174B0868984213D081
:102A0000164B086898420FD0154B086898420BD0B7
:102A1000144B0868984207D0134B0868984203D0BB
:102A2000124B086898420CD10868806800F00702D1
:102A3000062A0CD00868006840F001000B68186096
:102A400005E00868006840F001000B68186000208D
:102A5000C0E7000000000140000400400008004002
:102A6000000C0040000401400040014000180040FC
:102A700001460868C06820F001000A68D06000BF05
:102A80000868006A41F21112104050B90868006AE3
:102A90009210104028B90868006820F001000A6808
:102AA000106000BF012081F83D00002070472DE933
:102AB000F04104460D4600BF94F83C00012802D1C5
:102AC0000220BDE8F081012084F83C0000BF022014
:102AD00084F83D002068866826F0770626F47F4655
:102AE000206886602868502833D00CDC202850D01D
:102AF00004DC00284BD0102851D149E0302849D0BF
:102B000040284CD139E060282DD0702807D0B0F58E
:102B1000805F03D0B0F5005F41D10DE040E0D5E922
:102B200002136A68206806F059FC2068866846F03F
:102B300077062068866033E0D5E902136A6820686A
:102B400006F04CFC2068806840F480402168886072
:102B500026E0EA686968206806F054FC5021206885
:102B600006F047FC1CE0EA686968206806F05DFC36
:102B70006021206806F03DFC12E0EA686968206880
:102B800006F040FC4021206806F033FC08E000BF5E
:102B900000BF00BF2968206806F02BFC00E000BFE2
:102BA00000BF012084F83D0000BF002084F83C00F5
:102BB00000BF00BF85E7704710B504462068006974
:102BC000C0F34000D8B12068C068C0F34000B0B185
:102BD0006FF0020021680861012020772068806979
:102BE00000F0030018B12046FFF7E5FF05E020469E
:102BF00000F0ADF8204600F0ABF800202077206808
:102C00000069C0F38000D8B12068C068C0F38000BC
:102C1000B0B16FF0040021680861022020772068BD
:102C2000806900F4407018B12046FFF7C4FF05E04A
:102C3000204600F08CF8204600F08AF8002020772B
:102C400020680069C0F3C000D8B12068C068C0F334
:102C5000C000B0B16FF0080021680861042020773F
:102C60002068C06900F0030018B12046FFF7A3FFF9
:102C700005E0204600F06BF8204600F069F80020DF
:102C8000207720680069C0F30010D8B12068C068C0
:102C9000C0F30010B0B16FF0100021680861082087
:102CA00020772068C06900F4407018B12046FFF713
:102CB00082FF05E0204600F04AF8204600F048F880
:102CC000002020772068006900F0010058B12068DA
:102CD000C06800F0010030B16FF0010021680861A8
:102CE000204600F037F820680069C0F3C01058B1E2
:102CF0002068C068C0F3C01030B16FF08000216858
:102D000008612046FFF797FD20680069C0F3801036
:102D100058B12068C068C0F3801030B16FF0400037
:102D200021680861204600F02BF820680069C0F394
:102D3000401058B12068C068C0F3401030B16FF047
:102D40002000216808612046FFF776FD10BD70471E
:102D50007047000010B5044606492068884208D133
:102D60000548008840F40040034908800348FFF705
:102D70007FFE10BD001000406800002034010020DC
:102D800070477047704700002DE9F84F04462068EF
:102D900005682068C668206847694FF00009CA4680
:102DA00005F00F09B9F1000F0AD105F0200038B184
:102DB00006F0200020B1204607F07DFBBDE8F88F2B
:102DC000B9F1000F72D007F0010018B906F4907045
:102DD00000286BD005F0010030B106F4807018B106
:102DE000206C40F00100206405F0040030B107F0D1
:102DF000010018B1206C40F00200206405F00200D0
:102E000030B107F0010018B1206C40F004002064DC
:102E100005F0080048B106F0200010B907F00100E5
:102E200018B1206C40F008002064206C70B305F0ED
:102E3000200028B106F0200010B1204607F03BFB2F
:102E400020684069C0F3801A206C00F0080010B9B7
:102E5000BAF1000F23D0204607F002FB206840693A
:102E600000F04000402816D12068406920F0400062
:102E700021684861A06B50B15648A16B0865A06BF2
:102E8000FEF71BFD10B1A06B016D88470CE02046DA
:102E9000FFF778FF08E02046FFF774FF04E02046C4
:102EA000FFF770FF0020206488E7FFE7206B012810
:102EB00079D105F01000002875D006F01000002828
:102EC00071D000BF0020009020680068009020684A
:102ED0004068009000BF00BF2068406900F04000DB
:102EE000402839D1A06B006840681FFA80F8B8F11B
:102EF000000F30D0A08D40452DDDA4F82E80A06BB2
:102F0000C069B0F5807F1FD02068C06820F4807051
:102F10002168C8602068406920F00100216848618C
:102F20002068406920F0400021684861202084F832
:102F30003E00002020632068C06820F01000216857
:102F4000C860A06BFEF764FCA08DE28D801A81B290
:102F50002046FFF716FF31E7A08DE18D401A1FFADA
:102F600080F8E08DE8B1B8F1000F1AD02068C06891
:102F700020F490702168C8602068406920F001004A
:102F800021684861202084F83E00002020632068EA
:102F9000C06820F010002168C86041462046FFF755
:102FA000F0FE0BE7FFE705F0800030B106F080008F
:102FB00018B1204607F017FC00E705F0400030B1DB
:102FC00006F0400018B1204607F065FAF6E600BFAB
:102FD000F4E600004DA4000810B504460CB9012029
:102FE00010BDA06900B100E000BF94F83D0028B911
:102FF000002084F83C00204600F028F8242084F8C3
:103000003D002068C06820F400502168C860204658
:1030100007F0B0FA2068006920F490402168086148
:103020002068406920F02A00216848612068C06853
:1030300040F400502168C86000202064202084F8FB
:103040003D0084F83E000020CAE7000010B586B0BD
:103050000446142101A8FDF7EDF83F492068884295
:1030600039D100BF002000903C48006840F01000BB
:103070003A4908600846006800F01000009000BF60
:1030800000BF00BF0020009034481438006840F0B2
:1030900001003249143908600846006800F0010058
:1030A000009000BF00BF4FF4C0600190022002906A
:1030B00000200390032004900720059001A92848D0
:1030C000FEF796FD002211462520FEF757FF25202A
:1030D000FEF744FF3DE023492068884239D100BF14
:1030E000002000901D48001F006840F400301B497C
:1030F000091F08600846006800F40030009000BF17
:1031000000BF00BF0020009014481438006840F051
:1031100001001249143908600846006800F00100F7
:10312000009000BF00BF0C20019002200290002000
:103130000390032004900720059001A90848FEF79A
:1031400057FD002211462620FEF718FF2620FEF725
:1031500005FF06B010BD00000010014044380240D9
:10316000000002400044004070B504460D4616467B
:1031700094F83E00202816D105B10EB9012070BD8B
:1031800000BF94F83C00012801D10220F7E701209C
:1031900084F83C0000BF00202063324629462046C8
:1031A00007F0FEFAEBE70220E9E7000010B504465D
:1031B0001C492068884205D1012241151A48FEF7B2
:1031C0002BFE2DE019492068884229D10122184997
:1031D0001848FFF7C9FF1848008800F40040F8B904
:1031E00015480088B0F5C87F14DA00201349096833
:1031F00048621148008810B91048FFF7E5FB0C48F9
:1032000001780D4802880088401C0B4B18800C4840
:10321000815405E00848008840F4004006490880D1
:1032200010BD0000001001400014024000440040A6
:103230004A000020C4010020680000203401002062
:10324000980300202DE9F84F04460E46174699468C
:103250004FF0000A94F83D0020285AD106B117B962
:103260000120BDE8F88F00BF94F83C00012801D18F
:103270000220F6E7012084F83C0000BF0020206413
:10328000212084F83D00FEF7CDFD8246A784E78427
:10329000A068B0F5805F04D1206910B90025B04660
:1032A00002E035464FF0000800BF002084F83C00E3
:1032B00000BF1BE05346002280212046CDF800903D
:1032C00007F0C1FA08B10320CBE745B9B8F8000010
:1032D000C0F308002168486008F1020803E028787C
:1032E000216848606D1CE08C401EE084E08C002862
:1032F000E0D15346002240212046CDF8009007F04F
:10330000A2FA08B10320ACE7202084F83D00002099
:10331000A7E70220A5E7704700BFFEE710B5002031
:103320000F4908600F48006820F440200D490860EC
:103330000846006840F48020086000200A49C1F86F
:10334000A402022007F0EEFF0120054908600220D8
:1033500007F0E8FF00200449C1F8A00210BD0000FA
:10336000A0824042000402400080404200B587B085
:10337000142102A8FCF75EFF00BF00200190104856
:10338000006840F002000E4908600846006800F03E
:103390000200019000BF00BF4FF440700290012076
:1033A000039004900220059002A90648FEF720FC35
:1033B0000120054908600549C1F8A40207B000BD15
:1033C0003038024000040240A08240420080404267
:1033D00010B500200F4908600F48006820F4402015
:1033E0000D4908600846006840F48020086001200C
:1033F0000A49C1F8A402022007F094FF0120054900
:103400000860022007F08EFF00200449C1F8A002E6
:1034100010BD0000A08240420004024000804042F3
:1034200070B5054600241648006820F44020144971
:103430000860084600680860002616E00020114970
:103440000860022007F06EFF01200F49C1F8A002BA
:103450006006040E0B487C38006808B1601CC4B2DA
:10346000012007F05FFF701CC6B2082EE6DB15B91D
:10347000FFF7AEFF01E0FFF751FF204670BD0000EF
:1034800000040240A08240420080404270B50446E1
:103490001548006820F44020134908600846006879
:1034A00040F480200860002010490860002517E0E3
:1034B000E0090E49091D08606006040E022007F0AD
:1034C00031FF01200A49C1F8A002022007F02AFFBB
:1034D000002006490860022007F024FF681CC5B2DE
:1034E000082DE5DB70BD000000040240A0824042D0
:1034F0000080404210B50F48006820F440200D497C
:1035000008600846006840F48020086001200A49ED
:1035100008600A49C1F8A002042007F003FF002058
:1035200005490860042007F0FDFE00200349C1F8AA
:10353000A00210BD00040240A4824042008040422C
:1035400010B50F48006820F440200D490860084677
:10355000006840F48020086000200A4908600A4999
:10356000C1F8A402042007F0DDFE0120054908602F
:103570000549C1F8A402042007F0D4FE10BD0000E4
:1035800000040240A08240420080404210B5002466
:103590001348006820F4402011490860084600687C
:1035A000086001200F49086007F0BCFE01200E49A9
:1035B000C1F8A00207F0B6FE07E0601CC4B2FA2C06
:1035C00003DDFFF7BDFF012010BD0648803800680D
:1035D0000028F2D10349091F086000BFF4E700008A
:1035E00000040240A4824042008040427CB505466F
:1035F000EF208DF8000001208DF801001A480068C6
:10360000000E8DF8020018480068000C8DF80300C9
:1036100015480088000A8DF80400134800788DF8DA
:10362000050007208DF8060000208DF807000F49DF
:10363000088012E0012007F045FE0C48008800F4E5
:10364000004050B100200949088069460848FCF74D
:10365000FCFD04460CB120467CBD681E80B2051EF0
:10366000E8D100BFF8E700003C000020680000201F
:103670009803002070B50446002617480588408846
:1036800045431548808846F60401884216D1124801
:103690008079012812D100200F4988712A204881A1
:1036A0002B2088810021084604F068FD01200A498A
:1036B00088712B2048812A20888103E00021084658
:1036C00004F05CFD04F05EFF002602E00348048085
:1036D000761CAE42FAD370BD800000208000006CE2
:1036E00010B50446002C6CD172498871F020088016
:1036F0004FF4A07048800846808849F241318842E2
:1037000011D06C48808846F6040188420BD0694885
:10371000808845F21031884205D06648808847F29B
:10372000897188421AD12C20624908812A20488157
:103730002B2088810846808846F60401884205D0FF
:103740005C48808845F21031884206D14FF4A07061
:10375000584908804FF4F0704880A7E055488088A9
:1037600045F21051884210D14FF430505149088130
:103770004FF4285048814FF42C5088814FF4F0705A
:1037800008804FF44870488090E04A48808841F6AD
:10379000631188420DD12C20464908812B20488195
:1037A0002A2088814FF4F07008804FF448704880D8
:1037B0007CE022203F490881202048812120888107
:1037C00074E001203B4988714FF4A0700880F0201C
:1037D00048800846808849F2413188420BD03548FC
:1037E000808845F21031884205D03248808847F2FF
:1037F0008971884207D12C202E4908812A204881CE
:103800002B2088813FE02B48808846F604018842BF
:1038100007D12C20274908812B2048812A20888124
:1038200031E02448808845F21051884210D14FF48D
:103830003050204908814FF4285048814FF42C50D3
:1038400088814FF4487008804FF4F07048801AE087
:103850001848808841F6631188420DD12C20154903
:1038600008812A2048812B2088814FF448700880E5
:103870004FF4F070488006E022200E490881212094
:103880004881202088810B48808846F604018842C0
:1038900005D00848808845F21031884206D14FF49F
:1038A000F070044908804FF4A0704880002003F0B5
:1038B000D1FE10BD800000202DE9FF4F84B081466D
:1038C0008A460020039002900698A0EB090507980D
:1038D000A0EB0A06CDF80490CDF800A0002D01DD84
:1038E000012705E00DB9002702E04FF0FF376D42D8
:1038F000002E02DD4FF0010806E016B94FF0000877
:1039000002E04FF0FF387642B54201DD2C4600E080
:1039100034464FF0000B21E0009A91B2019A90B228
:1039200000F022F803982844039002983044029053
:103930000398A04205DD0398001B039001983844CA
:1039400001900298A04205DD0298001B02900098A9
:10395000404400900BF101001FFA80FB601C83457E
:10396000DADD08B0BDE8F08F30B504460D462946D3
:10397000204604F003FC04F005FE024800880249DA
:10398000088030BD000000208000006C2DE9F0436D
:1039900006460F469046002445460320A0EB480902
:1039A0003CE07A1B91B2321990B2FFF7DDFF3A1B6F
:1039B00091B2721990B2FFF7D7FF3A1991B272190A
:1039C00090B2FFF7D1FF7A1991B2321990B2FFF796
:1039D000CBFF7A1991B2321B90B2FFF7C5FF3A19AB
:1039E00091B2721B90B2FFF7BFFF7A1B91B2321BEC
:1039F00090B2FFF7B9FF3A1B91B2721B90B2FFF77A
:103A0000B3FF641CB9F1000F03DAA000801D8144EC
:103A100004E0601B80000A3081446D1EAC42C0DDB2
:103A2000BDE8F08370B504460D4616465E488088B2
:103A300049F2413188420BD05B48808845F2103111
:103A4000884205D05848808847F28971884214D14D
:103A50005549488904F08AFD201204F07BFDE0B24C
:103A600004F078FD5049888904F080FD281204F0A4
:103A700071FDE8B204F06EFD8CE04B48808845F2A1
:103A80001051884220D14849488904F06FFD201226
:103A900004F060FD44494989491C88B204F066FD80
:103AA000E0B204F057FD4049888904F05FFD281218
:103AB00004F050FD3C498989491C88B204F056FD48
:103AC000E8B204F047FD65E03748808841F66311AD
:103AD000884228D13448807920B933480088401E74
:103AE000001B84B23049488904F040FD201204F0E4
:103AF00031FDE0B204F02EFD201204F02BFDE0B207
:103B000004F028FD2849888904F030FD281204F0CB
:103B100021FDE8B204F01EFD281204F01BFDE8B2FE
:103B200004F018FD36E02048808846F604018842FB
:103B30001DD11D488079012804D11B480088401EF2
:103B4000001B84B21849488904F010FD201204F0CB
:103B500001FDE0B204F0FEFC1349888904F006FD83
:103B6000281204F0F7FCE8B204F0F4FC12E00E486E
:103B70008079012804D10C480088401E001B84B2C3
:103B800009494889214604F007FD074988892946E3
:103B900004F002FD04480089044908804FF0D84031
:103BA000A0F8806070BD0000800000207E00006CE6
:103BB0002DE9FC4F05460E4617469846DDF82C9039
:103BC000002001902748808846F60401884229D1C8
:103BD00024488079012825D1AB4635462148008804
:103BE000C01B401E86B247461E480088A0EB0B0053
:103BF000401E1FFA80F800201A4988712A20488147
:103C00002B20888143463A4631462846CDF800901D
:103C1000FFF7CEFF0120134988712B2048812A200D
:103C200088811DE0781B401C80B20190344615E06D
:103C30002146284604F0A2FA04F0A4FC4FF0000A42
:103C400007E04FF0D840A0F880900AF101001FFA79
:103C500080FA01988245F4DB601C84B24445E7DDBC
:103C6000BDE8FC8F8000002008B5002000903220C5
:103C700007F028FB0121002004F08EFC322007F021
:103C800021FB002003F0AAFCFE498880322007F0C7
:103C900019FBFC488088FF280ADBFA4880884FF629
:103CA000FF71884204D0F7488088B0F5134F7DD16A
:103CB000D32004F05BFC03F087FCF249888003F01A
:103CC00083FCF049888003F07FFCEE498880084639
:103CD00080884FF6FF7101EA0020EA49888003F0EE
:103CE00073FCE84989880843E6498880084680884B
:103CF00049F24131884259D0042004F037FC03F0E6
:103D000063FCE049888003F05FFCDE49888003F0B3
:103D10005BFCDC498880084680884FF6FF7101EA29
:103D20000020D849888003F04FFCD6498988084391
:103D3000D44988800846808848F25251884203D18D
:103D400047F28970CF498880CE48808847F28971D0
:103D50008842D0D0BF2004F009FC03F035FCC949EB
:103D6000888003F031FCC749888003F02DFCC549E9
:103D7000888003F029FCC3498880084680884FF674
:103D8000FF7101EA0020BF49888003F01DFCBD4996
:103D900089880843BB4988800846808846F6040124
:103DA00088427AD0D42004F0E1FB00E075E003F013
:103DB0000BFCB449888003F007FCB249888003F00B
:103DC00003FCB0498880084680884FF6FF7101EAFD
:103DD0000020AC49888003F0F7FBAA498988084392
:103DE000A84988800846808845F21031884254D01E
:103DF0004FF45A4004F0BAFB03F0E6FBA149888077
:103E00004FF45B4004F0B2FB03F0DEFB9D49888079
:103E1000084680884FF6FF7101EA002099498880A2
:103E20004FF45C4004F0A2FB03F0CEFB9549898877
:103E300008439449888008468088B0F5004F02D135
:103E400045F2105088808F48808845F21051884292
:103E500023D0A12004F08AFB03F0B6FB89498880B7
:103E600003F0B2FB87498880084680884FF6FF71CF
:103E700001EA00208349888003F0A6FB81498988F4
:103E80000843804988800846808845F261718842ED
:103E900003D141F663107B4988807A48808849F2D3
:103EA0004131884211D07748808845F210318842EC
:103EB0000BD07448808845F21051884205D0714873
:103EC000808841F6631188421DD16F48006820F058
:103ED0000F004FF02041C1F81C010846D0F81C012A
:103EE00020F47060C1F81C010846D0F81C0140F0B5
:103EF0000300C1F81C010846D0F81C0140F4007012
:103F0000C1F81C0128E05F48808846F60401884219
:103F100005D05C4880884CF2055188421CD15A4833
:103F2000006820F00F004FF02041C1F81C01084646
:103F3000D0F81C0120F47060C1F81C010846D0F8CC
:103F40001C0140F00A00C1F81C010846D0F81C0111
:103F500040F44060C1F81C014A48808849F2413170
:103F600088427CD1CF2004F001FB002004F0F2FA5B
:103F7000C12004F0EFFA302004F0ECFAED2004F058
:103F8000F5FA642004F0E6FA032004F0E3FA1220C4
:103F900004F0E0FA812004F0DDFAE82004F0E6FA0B
:103FA000852004F0D7FA102004F0D4FA7A2004F027
:103FB000D1FACB2004F0DAFA392004F0CBFA2C2025
:103FC00004F0C8FA002004F0C5FA342004F0C2FA64
:103FD000022004F0BFFAF72004F0C8FA202004F011
:103FE000B9FAEA2004F0C2FA002004F0B3FA002083
:103FF00004F0B0FAC02004F0B9FA1B2004F0AAFAC9
:10400000C12004F0B3FA012004F0A4FAC52004F0A2
:10401000ADFA302004F09EFA302004F09BFAC7205D
:1040200004F0A4FAB72004F095FA362004F09EFAC2
:10403000482004F08FFA3A2004F098FA552004F052
:1040400089FAB12004F092FA002004F083FA1A20D1
:1040500004F080FAB62004F089FA0A2000E09EE01D
:1040600004F078FAA22004F075FAF22004F07EFA47
:10407000002004F06FFA262004F078FA012004F002
:1040800069FA03E0800000201C0100A0E02004F099
:104090006DFA0F2004F05EFA2A2004F05BFA282063
:1040A00004F058FA082004F055FA0E2004F052FAF1
:1040B000082004F04FFA542004F04CFAA92004F030
:1040C00049FA432004F046FA0A2004F043FA0F208C
:1040D00004F040FA002004F03DFA002004F03AFA1F
:1040E000002004F037FA002004F034FAE12004F054
:1040F0003DFA002004F02EFA152004F02BFA1720C8
:1041000004F028FA072004F025FA112004F022FA1E
:10411000062004F01FFA2B2004F01CFA562004F0AD
:1041200019FA3C2004F016FA052004F013FA1020C6
:1041300004F010FA0F2004F00DFA3F2004F00AFA00
:104140003F2004F007FA0F2004F004FA2B2004F0BB
:104150000DFA002004F0FEF9002004F0FBF9012024
:1041600004F0F8F93F2004F0F5F92A2004F0FEF9F4
:10417000002004F0EFF9002004F0ECF9002004F036
:10418000E9F9EF2004F0E6F9112004F0EFF97820C6
:1041900007F098F8292004F0E9F903F0F8B9FE488F
:1041A000808847F2897188427ED1112004F0DEF9BF
:1041B000782007F087F8362004F0D8F9002004F0C2
:1041C000C9F93A2004F0D2F9052004F0C3F9B2206D
:1041D00004F0CCF90C2004F0BDF90C2004F0BAF97D
:1041E000002004F0B7F9332004F0B4F9332004F0D0
:1041F000B1F9B72004F0BAF9352004F0ABF9BB20CF
:1042000004F0B4F9322004F0A5F9C02004F0AEF9AE
:104210000C2004F09FF9C22004F0A8F9012004F05A
:1042200099F9C32004F0A2F9102004F093F9C420F6
:1042300004F09CF9202004F08DF9C62004F096F9D2
:104240000F2004F087F9D02004F090F9A42004F0A6
:1042500081F9A12004F07EF9E02004F087F9D02054
:1042600004F078F9002004F075F9022004F072F9E6
:10427000072004F06FF90A2004F06CF9282004F0FC
:1042800069F9322004F066F9442004F063F9422011
:1042900004F060F9062004F05DF90E2004F05AF9EC
:1042A000122004F057F900E054E0142004F052F911
:1042B000172004F04FF9E12004F058F9D02004F061
:1042C00049F9002004F046F9022004F043F90720E0
:1042D00004F040F90A2004F03DF9282004F03AF9EE
:1042E000312004F037F9542004F034F9472004F069
:1042F00031F90E2004F02EF91C2004F02BF91720C0
:1043000004F028F91B2004F025F91E2004F022F9FE
:104310002A2004F02BF9002004F01CF9002004F0FE
:1043200019F9002004F016F9EF2004F013F92B20FE
:1043300004F01CF9002004F00DF9002004F00AF943
:10434000012004F007F93F2004F004F9292004F0CB
:104350000DF922E79048808846F6040188427CD116
:10436000112004F003F9142006F0ACFFD02004F073
:10437000FDF8072004F0EEF8422004F0EBF81D20D1
:1043800004F0E8F8D12004F0F1F8002004F0E2F89D
:104390001A2004F0DFF8092004F0DCF8D22004F041
:1043A000E5F8012004F0D6F8222004F0D3F8C0206C
:1043B00004F0DCF8102004F0CDF83B2004F0CAF83B
:1043C000002004F0C7F8022004F0C4F8112004F023
:1043D000C1F8C52004F0CAF8032004F0BBF8C820D7
:1043E00004F0C4F8002004F0B5F8252004F0B2F879
:1043F000212004F0AFF8052004F0ACF8002004F010
:10440000A9F80A2004F0A6F8652004F0A3F82520F6
:1044100004F0A0F8772004F09DF8502004F09AF8FA
:104420000F2004F097F8002004F094F8F82004F02E
:104430009DF8012004F08EF8FE2004F097F800208B
:1044400004F088F8022004F085F8202004F08EF8AB
:10445000362004F08BF8082000E02CE004F07AF815
:104460003A2004F083F8552004F074F82B2004F06F
:104470007DF8002004F06EF8002004F06BF80120B5
:1044800004F068F83F2004F065F82A2004F06EF884
:10449000002004F05FF8002004F05CF8012004F034
:1044A00059F8DF2004F056F8782006F00BFF292099
:1044B00004F05CF871E63848808845F21031884293
:1044C00040F07C87ED2004F051F8012004F042F820
:1044D000FE2004F03FF8EE2004F048F8DE2004F05F
:1044E00039F8212004F036F8F12004F03FF80120DB
:1044F00004F030F8DF2004F039F8102004F02AF836
:10450000C42004F033F88F2004F024F8C62004F00F
:104510002DF8002004F01EF8E22004F01BF8E22041
:1045200004F018F8E22004F015F8BF2004F01EF89B
:10453000AA2004F00FF8B02004F018F80D2004F0C1
:1045400009F8002004F006F80D2004F003F800201C
:1045500004F000F8112003F0FDFF002003F0FAFF43
:10456000192003F0F7FF002003F0F4FF212003F0EF
:10457000F1FF002003F0EEFF2D2003F0EBFF002001
:1045800003F0E8FF3D2003F0E5FF002003F0E2FF29
:104590005D2003F0DFFF01E080000020002003F039
:1045A000D9FF5D2003F0D6FF002003F0D3FFB12038
:1045B00003F0DCFF802003F0CDFF002003F0CAFFF2
:1045C0008B2003F0C7FF002003F0C4FF962003F008
:1045D000C1FF002003F0BEFFB22003F0C7FF0020A0
:1045E00003F0B8FF002003F0B5FF022003F0B2FF94
:1045F000002003F0AFFF032003F0ACFF002003F026
:10460000A9FFB32003F0B2FF002003F0A3FF0020B6
:1046100003F0A0FF002003F09DFF002003F09AFFAD
:10462000002003F097FF002003F094FF002003F028
:1046300091FF002003F08EFF002003F08BFF00208D
:1046400003F088FF002003F085FF002003F082FFC5
:10465000002003F07FFF002003F07CFF002003F028
:1046600079FF002003F076FF002003F073FF0020A5
:1046700003F070FF002003F06DFF002003F06AFFDD
:10468000002003F067FF002003F064FF002003F028
:1046900061FF002003F05EFFB42003F067FF8B2072
:1046A00003F058FF002003F055FF962003F052FF5F
:1046B000002003F04FFFA12003F04CFF002003F087
:1046C00049FFB52003F052FF022003F043FF002012
:1046D00003F040FF032003F03DFF002003F03AFF0A
:1046E000042003F037FF002003F034FFB62003F06E
:1046F0003DFF002003F02EFF002003F02BFFB7202A
:1047000003F034FF002003F025FF002003F022FF18
:104710003F2003F01FFF002003F01CFF5E2003F08A
:1047200019FF002003F016FF642003F013FF0020A0
:1047300003F010FF8C2003F00DFF002003F00AFFB0
:10474000AC2003F007FF002003F004FFDC2003F09F
:1047500001FF002003F0FEFE702003F0FBFE0020AE
:1047600003F0F8FE902003F0F5FE002003F0F2FEC7
:10477000EB2003F0EFFE002003F0ECFEDC2003F062
:10478000E9FE002003F0E6FEB82003F0EFFE002073
:1047900003F0E0FE002003F0DDFE002003F0DAFE6F
:1047A000002003F0D7FE002003F0D4FE002003F029
:1047B000D1FE002003F0CEFE002003F0CBFEBA2095
:1047C00003F0D4FE242003F0C5FE002003F0C2FE57
:1047D000002003F0BFFE002003F0BCFEC12003F068
:1047E000C5FE202003F0B6FE002003F0B3FE5420E7
:1047F00003F0B0FE002003F0ADFEFF2003F0AAFEA0
:10480000002003F0A7FEC22003F0B0FE0A2003F050
:10481000A1FE002003F09EFE042003F09BFE00207A
:1048200003F098FEC32003F0A1FE3C2003F092FEAB
:10483000002003F08FFE3A2003F08CFE002003F0EE
:1048400089FE392003F086FE002003F083FE372026
:1048500003F080FE002003F07DFE3C2003F07AFE92
:10486000002003F077FE362003F074FE002003F0F2
:1048700071FE322003F06EFE002003F06BFE2F204D
:1048800003F068FE002003F065FE2C2003F062FEBA
:10489000002003F05FFE292003F05CFE002003F0FF
:1048A00059FE262003F056FE002003F053FE24207C
:1048B00003F050FE002003F04DFE242003F04AFEDA
:1048C000002003F047FE232003F044FE002003F005
:1048D00041FE3C2003F03EFE002003F03BFE36206C
:1048E00003F038FE002003F035FE322003F032FEE4
:1048F000002003F02FFE2F2003F02CFE002003F0F9
:1049000029FE2C2003F026FE002003F023FE2920A0
:1049100003F020FE002003F01DFE262003F01AFE07
:10492000002003F017FE242003F014FE002003F003
:1049300011FE242003F00EFE002003F00BFE2320C6
:1049400003F008FE002003F005FEC42003F00EFE75
:10495000622003F0FFFD002003F0FCFD052003F0C2
:10496000F9FD002003F0F6FD842003F0F3FD0020A4
:1049700003F0F0FDF02003F0EDFD002003F0EAFD70
:10498000182003F0E7FD002003F0E4FDA42003F06D
:10499000E1FD002003F0DEFD182003F0DBFD002028
:1049A00003F0D8FD502003F0D5FD002003F0D2FD28
:1049B0000C2003F0CFFD002003F0CCFD172003F006
:1049C000C9FD002003F0C6FD952003F0C3FD0020C3
:1049D00003F0C0FDF32003F0BDFD002003F0BAFD9D
:1049E000E62003F0B7FD002003F0B4FDC52003F07E
:1049F000BDFD322003F0AEFD002003F0ABFD4420EE
:104A000003F0A8FD002003F0A5FD652003F0A2FD42
:104A1000002003F09FFD762003F09CFD002003F0B2
:104A200099FD882003F096FD002003F093FDC62039
:104A300003F09CFD202003F08DFD002003F08AFD93
:104A4000172003F087FD002003F084FD012003F010
:104A500081FD002003F07EFDC72003F087FD0020CC
:104A600003F078FD002003F075FD002003F072FDD7
:104A7000002003F06FFDC82003F078FD002003F054
:104A800069FD002003F066FD002003F063FD0020B7
:104A900003F060FDC92003F069FD002003F05AFD1A
:104AA000002003F057FD002003F054FD002003F028
:104AB00051FD002003F04EFD002003F04BFD0020CF
:104AC00003F048FD002003F045FD002003F042FD07
:104AD000002003F03FFD002003F03CFD002003F028
:104AE00039FD002003F036FD002003F033FD0020E7
:104AF00003F030FD002003F02DFDE02003F036FD33
:104B0000162003F027FD002003F024FD1C2003F0F5
:104B100021FD002003F01EFD212003F01BFD0020DD
:104B200003F018FD362003F015FD002003F012FD00
:104B3000462003F00FFD002003F00CFD522003F08F
:104B400009FD002003F006FD642003F003FD0020B2
:104B500003F000FD7A2003F0FDFC002003F0FAFCD6
:104B60008B2003F0F7FC002003F0F4FC992003F005
:104B7000F1FC002003F0EEFCA82003F0EBFC002089
:104B800003F0E8FCB92003F0E5FC002003F0E2FCB0
:104B9000C42003F0DFFC002003F0DCFCCA2003F09B
:104BA000D9FC002003F0D6FCD22003F0D3FC002077
:104BB00003F0D0FCD92003F0CDFC002003F0CAFCA8
:104BC000E02003F0C7FC002003F0C4FCF32003F056
:104BD000C1FC002003F0BEFCE12003F0C7FC16205E
:104BE00003F0B8FC002003F0B5FC1C2003F0B2FC7D
:104BF000002003F0AFFC222003F0ACFC002003F007
:104C0000A9FC362003F0A6FC002003F0A3FC4520FD
:104C100003F0A0FC002003F09DFC522003F09AFC5E
:104C2000002003F097FC642003F094FC002003F0C4
:104C300091FC7A2003F08EFC002003F08BFC8B208B
:104C400003F088FC002003F085FC992003F082FC2F
:104C5000002003F07FFCA82003F07CFC002003F080
:104C600079FCB92003F076FC002003F073FCC4202B
:104C700003F070FC002003F06DFCCA2003F06AFC16
:104C8000002003F067FCD22003F064FC002003F056
:104C900061FCD82003F05EFC002003F05BFCE02008
:104CA00003F058FC002003F055FCF32003F052FC05
:104CB000002003F04FFCE22003F058FC052003F035
:104CC00049FC002003F046FC0B2003F043FC0020CD
:104CD00003F040FC1B2003F03DFC002003F03AFCF5
:104CE000342003F037FC002003F034FC442003F0B0
:104CF00031FC002003F02EFC4F2003F02BFC0020A1
:104D000003F028FC612003F025FC002003F022FCC6
:104D1000792003F01FFC002003F01CFC882003F026
:104D200019FC002003F016FC972003F013FC002070
:104D300003F010FCA62003F00DFC002003F00AFC99
:104D4000B72003F007FC002003F004FCC22003F0AE
:104D500001FC002003F0FEFBC72003F0FBFB00205A
:104D600003F0F8FBD12003F0F5FB002003F0F2FB89
:104D7000D62003F0EFFB002003F0ECFBDD2003F076
:104D8000E9FB002003F0E6FBF32003F0E3FB002047
:104D900003F0E0FBE32003F0E9FB052003F0DAFB7E
:104DA000002003F0D7FB0A2003F0D4FB002003F01F
:104DB000D1FB1C2003F0CEFB002003F0CBFB332003
:104DC00003F0C8FB002003F0C5FB442003F0C2FB46
:104DD000002003F0BFFB502003F0BCFB002003F0D9
:104DE000B9FB622003F0B6FB002003F0B3FB782090
:104DF00003F0B0FB002003F0ADFB882003F0AAFB1A
:104E0000002003F0A7FB972003F0A4FB002003F091
:104E1000A1FBA62003F09EFB002003F09BFBB72024
:104E200003F098FB002003F095FBC22003F092FBF7
:104E3000002003F08FFBC72003F08CFB002003F061
:104E400089FBD12003F086FB002003F083FBD520F3
:104E500003F080FB002003F07DFBDD2003F07AFBF4
:104E6000002003F077FBF32003F074FB002003F035
:104E700071FBE42003F07AFB012003F06BFB0020C0
:104E800003F068FB012003F065FB002003F062FBE8
:104E9000022003F05FFB002003F05CFB2A2003F0FC
:104EA00059FB002003F056FB3C2003F053FB00208D
:104EB00003F050FB4B2003F04DFB002003F04AFBB6
:104EC0005D2003F047FB002003F044FB742003F057
:104ED00041FB002003F03EFB842003F03BFB00205D
:104EE00003F038FB932003F035FB002003F032FB86
:104EF000A22003F02FFB002003F02CFBB32003F0D3
:104F000029FB002003F026FBBE2003F023FB00203A
:104F100003F020FBC42003F01DFB002003F01AFB6C
:104F2000CD2003F017FB002003F014FBD32003F087
:104F300011FB002003F00EFBDD2003F00BFB002033
:104F400003F008FBF32003F005FB002003F002FB55
:104F5000E52003F00BFB002003F0FCFA002003F037
:104F6000F9FA002003F0F6FA002003F0F3FA022029
:104F700003F0F0FA002003F0EDFA292003F0EAFA3A
:104F8000002003F0E7FA3C2003F0E4FA002003F0ED
:104F9000E1FA4B2003F0DEFA002003F0DBFA5D209B
:104FA00003F0D8FA002003F0D5FA742003F0D2FA07
:104FB000002003F0CFFA842003F0CCFA002003F0A5
:104FC000C9FA932003F0C6FA002003F0C3FAA22026
:104FD00003F0C0FA002003F0BDFAB32003F0BAFAE0
:104FE000002003F0B7FABE2003F0B4FA002003F06B
:104FF000B1FAC42003F0AEFA002003F0ABFACD20E2
:1050000003F0A8FA002003F0A5FAD32003F0A2FAD7
:10501000002003F09FFADC2003F09CFA002003F04C
:1050200099FAF32003F096FA002003F093FAE620B1
:1050300003F09CFA112003F08DFA002003F08AFAA5
:10504000342003F087FA002003F084FA562003F09E
:1050500081FA002003F07EFA762003F07BFA00202C
:1050600003F078FA772003F075FA002003F072FA63
:10507000662003F06FFA002003F06CFA882003F03A
:1050800069FA002003F066FA992003F063FA002021
:1050900003F060FABB2003F05DFA002003F05AFA37
:1050A000992003F057FA002003F054FA662003F029
:1050B00051FA002003F04EFA552003F04BFA00207D
:1050C00003F048FA552003F045FA002003F042FAB5
:1050D000452003F03FFA002003F03CFA432003F0A0
:1050E00039FA002003F036FA442003F033FA0020A6
:1050F00003F030FAE72003F039FA322003F02AFAFD
:10510000002003F027FA552003F024FA002003F0D2
:1051100021FA762003F01EFA002003F01BFA662025
:1051200003F018FA002003F015FA672003F012FAD2
:10513000002003F00FFA672003F00CFA002003F0C0
:1051400009FA872003F006FA002003F003FA9920F9
:1051500003F000FA002003F0FDF9BB2003F0FAF998
:10516000002003F0F7F9992003F0F4F9002003F090
:10517000F1F9772003F0EEF9002003F0EBF9442079
:1051800003F0E8F9002003F0E5F9562003F0E2F916
:10519000002003F0DFF9232003F0DCF9002003F006
:1051A000D9F9332003F0D6F9002003F0D3F94520D4
:1051B00003F0D0F9002003F0CDF9E82003F0D6F990
:1051C000002003F0C7F9002003F0C4F9992003F090
:1051D000C1F9002003F0BEF9872003F0BBF90020DD
:1051E00003F0B8F9882003F0B5F9002003F0B2F914
:1051F000772003F0AFF9002003F0ACF9662003F04C
:10520000A9F9002003F0A6F9882003F0A3F90020F3
:1052100003F0A0F9AA2003F09DF9002003F09AF909
:10522000BB2003F097F9002003F094F9992003F0D4
:1052300091F9002003F08EF9662003F08BF900202D
:1052400003F088F9552003F085F9002003F082F976
:10525000552003F07FF9002003F07CF9442003F08F
:1052600079F9002003F076F9442003F073F9002067
:1052700003F070F9552003F06DF9002003F06AF98E
:10528000E92003F073F9AA2003F064F9002003F089
:1052900061F9002003F05EF9002003F05BF90020C3
:1052A00003F064F9AA2003F055F9CF2003F05EF96A
:1052B000002003F04FF9002003F04CF9002003F028
:1052C00049F9002003F046F9002003F043F90020DB
:1052D00003F040F9002003F03DF9002003F03AF913
:1052E000002003F037F9002003F034F9002003F028
:1052F00031F9002003F02EF9002003F02BF90020F3
:1053000003F028F9002003F025F9002003F022F92A
:10531000002003F01FF9F02003F028F9002003F02B
:1053200019F9502003F016F9002003F013F90020BA
:1053300003F010F9002003F00DF9F32003F016F943
:10534000002003F007F9F92003F010F9062003F01C
:1053500001F9102003F0FEF8292003F0FBF80020EB
:1053600003F0F8F83A2003F001F9552003F0F2F8C1
:10537000112003F0FBF8642005F0A4FF292003F0BE
:10538000F5F8352003F0F2F8002003F0E3F851209F
:1053900003F0ECF8FF2003F0DDF8532003F0E6F80B
:1053A0002C2003F0D7F8552003F0E0F8822003F01A
:1053B000D1F82C2003F0DAF802F0E9B8FE48808832
:1053C00045F2105188427DD155214FF4704003F0D1
:1053D000E3F8AA214FF2010003F0DEF852214FF268
:1053E000020003F0D9F808214FF2030003F0D4F8CB
:1053F00001214FF2040003F0CFF80D214FF43040AB
:1054000003F0CAF80D214BF2010003F0C5F80D219D
:105410004BF2020003F0C0F834214FF4364003F0A1
:10542000BBF834214BF2016003F0B6F834214BF2A3
:10543000026003F0B1F80D214FF4314003F0ACF8F5
:105440000D214BF2011003F0A7F80D214BF20210D1
:1054500003F0A2F834214FF4374003F09DF83421D3
:105460004BF2017003F098F834214BF2027003F014
:1054700093F800214FF4324003F08EF800214BF2F4
:10548000012003F089F800214BF2022003F084F898
:1054900024214FF4384003F07FF824214BF601001B
:1054A00003F07AF824214BF6020003F075F801218D
:1054B0004FF43F4003F070F80F214FF4334003F0F6
:1054C0006BF800E0FDE30F214BF2013003F064F8CC
:1054D0000F214BF2023003F05FF834214FF43940D2
:1054E00003F05AF834214BF6011003F055F834213B
:1054F0004BF6021003F050F808214FF4354003F04A
:105500004BF808214BF2015003F046F808214BF20A
:10551000025003F041F803214FF4424003F03CF8FD
:1055200024214FF43A4003F037F824214BF60120B0
:1055300003F032F824214BF6022003F02DF800216D
:105540004FF43C4003F028F878214BF6014003F07B
:1055500023F800214BF6024003F01EF800214FF41F
:105560003D4003F019F878214BF6015003F014F890
:1055700000214BF6025003F00FF800214FF43E409B
:1055800003F00AF864214BF6016003F005F80021EE
:105590004FF4514003F000F833214DF2011002F0B6
:1055A000FBFF00214DF2021002F0F6FF34214DF214
:1055B000031002F0F1FF00214DF2041002F0ECFFA5
:1055C0003A214DF2051002F0E7FF00214DF20610DE
:1055D00002F0E2FF4A214DF2071002F0DDFF002148
:1055E0004DF2081002F0D8FF5C214DF2091002F0D4
:1055F000D3FF00214DF20A1002F0CEFF81214DF2BF
:105600000B1002F0C9FF00214DF20C1002F0C4FF94
:10561000A6214DF20D1002F0BFFF00214DF20E1039
:1056200002F0BAFFE5214DF20F1002F0B5FF0121A3
:105630004DF2101002F0B0FF13214DF2111002F0E4
:10564000ABFF01214DF2121002F0A6FF54214DF2E2
:10565000131002F0A1FF01214DF2141002F09CFF83
:1056600082214DF2151002F097FF01214DF2161024
:1056700002F092FFCA214DF2171002F08DFF0221B5
:105680004DF2181002F088FF00214DF2191002F0BF
:1056900083FF02214DF21A1002F07EFF01214DF22C
:1056A0001B1002F079FF02214DF21C1002F074FF72
:1056B00034214DF21D1002F06FFF02214DF21E1039
:1056C00002F06AFF67214DF21F1002F065FF022110
:1056D0004DF2201002F060FF84214DF2211002F003
:1056E0005BFF02214DF2221002F056FFA4214DF281
:1056F000231002F051FF02214DF2241002F04CFF62
:10570000B7214DF2251002F047FF02214DF226107D
:1057100002F042FFCF214DF2271002F03DFF02219F
:105720004DF2281002F038FFDE214DF2291002F070
:1057300033FF02214DF22A1002F02EFFF2214DF22A
:105740002B1002F029FF02214DF22C1002F024FF51
:10575000FE214DF22D1002F01FFF03214DF22E10FD
:1057600002F01AFF10214DF22F1002F015FF032155
:105770004DF2301002F010FF33214DF2311002F0E3
:105780000BFF03214DF2321002F006FF6D214DF2A6
:10579000331002F001FF00214FF4524002F0FCFEF2
:1057A00033214DF2012002F0F7FE00214DF20220DC
:1057B00002F0F2FE342101E0800000204DF20320CF
:1057C00002F0EAFE00214DF2042002F0E5FE3A214B
:1057D0004DF2052002F0E0FE00214DF2062002F01D
:1057E000DBFE4A214DF2072002F0D6FE00214DF2E9
:1057F000082002F0D1FE5C214DF2092002F0CCFE1F
:1058000000214DF20A2002F0C7FE81214DF20B204B
:1058100002F0C2FE00214DF20C2002F0BDFEA621D6
:105820004DF20D2002F0B8FE00214DF20E2002F0E4
:10583000B3FEE5214DF20F2002F0AEFE01214DF244
:10584000102002F0A9FE13214DF2112002F0A4FE57
:1058500001214DF2122002F09FFE54214DF213203F
:1058600002F09AFE01214DF2142002F095FE8221F1
:105870004DF2152002F090FE01214DF2162002F0AB
:105880008BFECA214DF2172002F086FE02214DF256
:10589000182002F081FE00214DF2192002F07CFE5A
:1058A00002214DF21A2002F077FE01214DF21B2059
:1058B00002F072FE02214DF21C2002F06DFE342136
:1058C0004DF21D2002F068FE02214DF21E2002F072
:1058D00063FE67214DF21F2002F05EFE02214DF2B1
:1058E000202002F059FE84214DF2212002F054FEC6
:1058F00002214DF2222002F04FFEA4214DF223207E
:1059000002F04AFE02214DF2242002F045FEB721AA
:105910004DF2252002F040FE02214DF2262002F039
:105920003BFECF214DF2272002F036FE02214DF240
:10593000282002F031FEDE214DF2292002F02CFE5B
:1059400002214DF22A2002F027FEF2214DF22B20F7
:1059500002F022FE02214DF22C2002F01DFEFE215B
:105960004DF22D2002F018FE03214DF22E2002F000
:1059700013FE10214DF22F2002F00EFE03214DF2F6
:10598000302002F009FE33214DF2312002F004FEF6
:1059900003214DF2322002F0FFFD6D214DF2332044
:1059A00002F0FAFD00214FF4534002F0F5FD3321DF
:1059B0004DF2013002F0F0FD00214DF2023002F014
:1059C000EBFD34214DF2033002F0E6FD00214DF2F3
:1059D000043002F0E1FD3A214DF2053002F0DCFD29
:1059E00000214DF2063002F0D7FD4A214DF207307A
:1059F00002F0D2FD00214DF2083002F0CDFD5C2115
:105A00004DF2093002F0C8FD00214DF20A3002F0DB
:105A1000C3FD81214DF20B3002F0BEFD00214DF29D
:105A20000C3002F0B9FDA6214DF20D3002F0B4FDAC
:105A300000214DF20E3002F0AFFDE5214DF20F30A6
:105A400002F0AAFD01214DF2103002F0A5FD132154
:105A50004DF2113002F0A0FD01214DF2123002F0A2
:105A60009BFD54214DF2133002F096FD01214DF2C1
:105A7000143002F091FD82214DF2153002F08CFDC0
:105A800001214DF2163002F087FDCA214DF2173088
:105A900002F082FD02214DF2183002F07DFD00215E
:105AA0004DF2193002F078FD02214DF21A3002F069
:105AB00073FD01214DF21B3002F06EFD02214DF20B
:105AC0001C3002F069FD34214DF21D3002F064FDFE
:105AD00002214DF21E3002F05FFD67214DF21F30B2
